{
  "contractName": "RockPaperScissor",
  "abi": [
    {
      "inputs": [
        {
          "internalType": "uint8",
          "name": "_stakes",
          "type": "uint8"
        }
      ],
      "stateMutability": "nonpayable",
      "type": "constructor"
    },
    {
      "anonymous": false,
      "inputs": [
        {
          "indexed": true,
          "internalType": "address",
          "name": "playerAddress",
          "type": "address"
        },
        {
          "indexed": false,
          "internalType": "enum RockPaperScissor.Result",
          "name": "result",
          "type": "uint8"
        },
        {
          "indexed": false,
          "internalType": "uint256",
          "name": "winningAmount",
          "type": "uint256"
        },
        {
          "indexed": false,
          "internalType": "enum RockPaperScissor.Options",
          "name": "winningOption",
          "type": "uint8"
        }
      ],
      "name": "GameResult",
      "type": "event"
    },
    {
      "anonymous": false,
      "inputs": [
        {
          "indexed": true,
          "internalType": "address",
          "name": "playerAddress",
          "type": "address"
        },
        {
          "indexed": false,
          "internalType": "string",
          "name": "playerName",
          "type": "string"
        }
      ],
      "name": "PlayerAdded",
      "type": "event"
    },
    {
      "anonymous": false,
      "inputs": [
        {
          "indexed": true,
          "internalType": "address",
          "name": "playerAddress",
          "type": "address"
        },
        {
          "indexed": false,
          "internalType": "uint256",
          "name": "amountWithdrawn",
          "type": "uint256"
        }
      ],
      "name": "PlayerWithdrawal",
      "type": "event"
    },
    {
      "inputs": [
        {
          "internalType": "string",
          "name": "_playerName",
          "type": "string"
        }
      ],
      "name": "registerPlayer",
      "outputs": [],
      "stateMutability": "nonpayable",
      "type": "function"
    },
    {
      "inputs": [
        {
          "internalType": "enum RockPaperScissor.Options",
          "name": "_playerOption",
          "type": "uint8"
        }
      ],
      "name": "startPlay",
      "outputs": [],
      "stateMutability": "payable",
      "type": "function",
      "payable": true
    },
    {
      "inputs": [],
      "name": "ownerAddFunds",
      "outputs": [],
      "stateMutability": "payable",
      "type": "function",
      "payable": true
    },
    {
      "inputs": [
        {
          "internalType": "uint256",
          "name": "_amountWithdrawn",
          "type": "uint256"
        }
      ],
      "name": "playerWithdrawal",
      "outputs": [],
      "stateMutability": "payable",
      "type": "function",
      "payable": true
    },
    {
      "inputs": [
        {
          "internalType": "uint256",
          "name": "_amount",
          "type": "uint256"
        }
      ],
      "name": "ownerWithdrawal",
      "outputs": [],
      "stateMutability": "payable",
      "type": "function",
      "payable": true
    },
    {
      "inputs": [],
      "name": "getPlayer",
      "outputs": [
        {
          "components": [
            {
              "internalType": "string",
              "name": "name",
              "type": "string"
            },
            {
              "internalType": "address",
              "name": "walletAddress",
              "type": "address"
            },
            {
              "internalType": "uint32",
              "name": "winCount",
              "type": "uint32"
            },
            {
              "internalType": "uint32",
              "name": "lossCount",
              "type": "uint32"
            },
            {
              "internalType": "uint32",
              "name": "tieCount",
              "type": "uint32"
            },
            {
              "internalType": "uint256",
              "name": "balance",
              "type": "uint256"
            }
          ],
          "internalType": "struct RockPaperScissor.Player",
          "name": "",
          "type": "tuple"
        }
      ],
      "stateMutability": "view",
      "type": "function",
      "constant": true
    },
    {
      "inputs": [],
      "name": "getPlayerBalance",
      "outputs": [
        {
          "internalType": "uint256",
          "name": "",
          "type": "uint256"
        }
      ],
      "stateMutability": "view",
      "type": "function",
      "constant": true
    },
    {
      "inputs": [],
      "name": "ownerGetMaxWithdrawalAvailable",
      "outputs": [
        {
          "internalType": "uint256",
          "name": "",
          "type": "uint256"
        }
      ],
      "stateMutability": "view",
      "type": "function",
      "constant": true
    },
    {
      "inputs": [],
      "name": "getContractBalance",
      "outputs": [
        {
          "internalType": "uint256",
          "name": "",
          "type": "uint256"
        }
      ],
      "stateMutability": "view",
      "type": "function",
      "constant": true
    },
    {
      "inputs": [],
      "name": "getContractDebt",
      "outputs": [
        {
          "internalType": "uint256",
          "name": "",
          "type": "uint256"
        }
      ],
      "stateMutability": "view",
      "type": "function",
      "constant": true
    }
  ],
  "bytecode": "0x6080604052600a600160156101000a81548160ff021916908360ff1602179055503480156200002d57600080fd5b5060405162002509380380620025098339818101604052810190620000539190620000f9565b33600160006101000a81548173ffffffffffffffffffffffffffffffffffffffff021916908373ffffffffffffffffffffffffffffffffffffffff16021790555080600160146101000a81548160ff021916908360ff160217905550506200012b565b600080fd5b600060ff82169050919050565b620000d381620000bb565b8114620000df57600080fd5b50565b600081519050620000f381620000c8565b92915050565b600060208284031215620001125762000111620000b6565b5b60006200012284828501620000e2565b91505092915050565b6123ce806200013b6000396000f3fe6080604052600436106100915760003560e01c8063947825a411610059578063947825a41461014f578063b3446f8514610159578063b73cce9614610182578063dff3f3b9146101ad578063ef203c98146101c957610091565b80630b01517c1461009657806315a42ac6146100c15780631c483026146100dd5780633308f42d146100f95780636f9fb98a14610124575b600080fd5b3480156100a257600080fd5b506100ab6101f4565b6040516100b89190611671565b60405180910390f35b6100db60048036038101906100d691906116c5565b61030c565b005b6100f760048036038101906100f2919061171e565b610886565b005b34801561010557600080fd5b5061010e610ae4565b60405161011b91906118dc565b60405180910390f35b34801561013057600080fd5b50610139610d6d565b6040516101469190611671565b60405180910390f35b610157610e05565b005b34801561016557600080fd5b50610180600480360381019061017b9190611a33565b610e97565b005b34801561018e57600080fd5b50610197611135565b6040516101a49190611671565b60405180910390f35b6101c760048036038101906101c2919061171e565b6111cf565b005b3480156101d557600080fd5b506101de611315565b6040516101eb9190611671565b60405180910390f35b60003373ffffffffffffffffffffffffffffffffffffffff166000803373ffffffffffffffffffffffffffffffffffffffff1673ffffffffffffffffffffffffffffffffffffffff16815260200190815260200160002060010160009054906101000a900473ffffffffffffffffffffffffffffffffffffffff1673ffffffffffffffffffffffffffffffffffffffff16146102c5576040517f08c379a00000000000000000000000000000000000000000000000000000000081526004016102bc90611ad9565b60405180910390fd5b6000803373ffffffffffffffffffffffffffffffffffffffff1673ffffffffffffffffffffffffffffffffffffffff16815260200190815260200160002060020154905090565b3373ffffffffffffffffffffffffffffffffffffffff166000803373ffffffffffffffffffffffffffffffffffffffff1673ffffffffffffffffffffffffffffffffffffffff16815260200190815260200160002060010160009054906101000a900473ffffffffffffffffffffffffffffffffffffffff1673ffffffffffffffffffffffffffffffffffffffff16146103db576040517f08c379a00000000000000000000000000000000000000000000000000000000081526004016103d290611ad9565b60405180910390fd5b6000471161041e576040517f08c379a000000000000000000000000000000000000000000000000000000000815260040161041590611b6b565b60405180910390fd5b600160149054906101000a900460ff1660ff163461043c9190611bba565b6002544761044a9190611c14565b101561048b576040517f08c379a000000000000000000000000000000000000000000000000000000000815260040161048290611cba565b60405180910390fd5b670de0b6b3a764000034146104d5576040517f08c379a00000000000000000000000000000000000000000000000000000000081526004016104cc90611d26565b60405180910390fd5b60006104e08261139d565b905060006003826104f19190611d75565b600281111561050357610502611da6565b5b9050600061051184836113d6565b90506000600281111561052757610526611da6565b5b81600281111561053a57610539611da6565b5b1415610658576000600160149054906101000a900460ff1660ff16346105609190611bba565b905080600260008282546105749190611dd5565b92505081905550806000803373ffffffffffffffffffffffffffffffffffffffff1673ffffffffffffffffffffffffffffffffffffffff16815260200190815260200160002060020160008282546105cc9190611dd5565b9250508190555060016000803373ffffffffffffffffffffffffffffffffffffffff1673ffffffffffffffffffffffffffffffffffffffff16815260200190815260200160002060010160148282829054906101000a900463ffffffff166106349190611e2b565b92506101000a81548163ffffffff021916908363ffffffff1602179055505061082e565b60028081111561066b5761066a611da6565b5b81600281111561067e5761067d611da6565b5b141561077f576000349050806002600082825461069b9190611dd5565b92505081905550806000803373ffffffffffffffffffffffffffffffffffffffff1673ffffffffffffffffffffffffffffffffffffffff16815260200190815260200160002060020160008282546106f39190611dd5565b9250508190555060016000803373ffffffffffffffffffffffffffffffffffffffff1673ffffffffffffffffffffffffffffffffffffffff168152602001908152602001600020600101601c8282829054906101000a900463ffffffff1661075b9190611e2b565b92506101000a81548163ffffffff021916908363ffffffff1602179055505061082d565b6001600281111561079357610792611da6565b5b8160028111156107a6576107a5611da6565b5b141561082c5760016000803373ffffffffffffffffffffffffffffffffffffffff1673ffffffffffffffffffffffffffffffffffffffff16815260200190815260200160002060010160188282829054906101000a900463ffffffff1661080d9190611e2b565b92506101000a81548163ffffffff021916908363ffffffff1602179055505b5b5b3373ffffffffffffffffffffffffffffffffffffffff167ff460b9a739c33377a980d1793f5f52c50b0d7e87cc9e923783ed141161abf79d82348560405161087893929190611ef5565b60405180910390a250505050565b3373ffffffffffffffffffffffffffffffffffffffff166000803373ffffffffffffffffffffffffffffffffffffffff1673ffffffffffffffffffffffffffffffffffffffff16815260200190815260200160002060010160009054906101000a900473ffffffffffffffffffffffffffffffffffffffff1673ffffffffffffffffffffffffffffffffffffffff1614610955576040517f08c379a000000000000000000000000000000000000000000000000000000000815260040161094c90611ad9565b60405180910390fd5b80806000803373ffffffffffffffffffffffffffffffffffffffff1673ffffffffffffffffffffffffffffffffffffffff1681526020019081526020016000206002015410156109da576040517f08c379a00000000000000000000000000000000000000000000000000000000081526004016109d190611f9e565b60405180910390fd5b816000803373ffffffffffffffffffffffffffffffffffffffff1673ffffffffffffffffffffffffffffffffffffffff1681526020019081526020016000206002016000828254610a2b9190611c14565b925050819055508160026000828254610a449190611c14565b925050819055503373ffffffffffffffffffffffffffffffffffffffff166108fc839081150290604051600060405180830381858888f19350505050158015610a91573d6000803e3d6000fd5b503373ffffffffffffffffffffffffffffffffffffffff167fcb15aee0e66e2dd6413ec4a90b1cda19a3b024148655e9017356e0a82d7e855b83604051610ad89190611671565b60405180910390a25050565b610aec611557565b3373ffffffffffffffffffffffffffffffffffffffff166000803373ffffffffffffffffffffffffffffffffffffffff1673ffffffffffffffffffffffffffffffffffffffff16815260200190815260200160002060010160009054906101000a900473ffffffffffffffffffffffffffffffffffffffff1673ffffffffffffffffffffffffffffffffffffffff1614610bbb576040517f08c379a0000000000000000000000000000000000000000000000000000000008152600401610bb290611ad9565b60405180910390fd5b6000803373ffffffffffffffffffffffffffffffffffffffff1673ffffffffffffffffffffffffffffffffffffffff1681526020019081526020016000206040518060c0016040529081600082018054610c1490611fed565b80601f0160208091040260200160405190810160405280929190818152602001828054610c4090611fed565b8015610c8d5780601f10610c6257610100808354040283529160200191610c8d565b820191906000526020600020905b815481529060010190602001808311610c7057829003601f168201915b505050505081526020016001820160009054906101000a900473ffffffffffffffffffffffffffffffffffffffff1673ffffffffffffffffffffffffffffffffffffffff1673ffffffffffffffffffffffffffffffffffffffff1681526020016001820160149054906101000a900463ffffffff1663ffffffff1663ffffffff1681526020016001820160189054906101000a900463ffffffff1663ffffffff1663ffffffff16815260200160018201601c9054906101000a900463ffffffff1663ffffffff1663ffffffff168152602001600282015481525050905090565b60003373ffffffffffffffffffffffffffffffffffffffff16600160009054906101000a900473ffffffffffffffffffffffffffffffffffffffff1673ffffffffffffffffffffffffffffffffffffffff1614610dff576040517f08c379a0000000000000000000000000000000000000000000000000000000008152600401610df690612091565b60405180910390fd5b47905090565b3373ffffffffffffffffffffffffffffffffffffffff16600160009054906101000a900473ffffffffffffffffffffffffffffffffffffffff1673ffffffffffffffffffffffffffffffffffffffff1614610e95576040517f08c379a0000000000000000000000000000000000000000000000000000000008152600401610e8c90612091565b60405180910390fd5b565b600073ffffffffffffffffffffffffffffffffffffffff166000803373ffffffffffffffffffffffffffffffffffffffff1673ffffffffffffffffffffffffffffffffffffffff16815260200190815260200160002060010160009054906101000a900473ffffffffffffffffffffffffffffffffffffffff1673ffffffffffffffffffffffffffffffffffffffff1614610f67576040517f08c379a0000000000000000000000000000000000000000000000000000000008152600401610f5e90612123565b60405180910390fd5b6040518060c001604052808281526020013373ffffffffffffffffffffffffffffffffffffffff168152602001600063ffffffff168152602001600063ffffffff168152602001600063ffffffff16815260200160008152506000803373ffffffffffffffffffffffffffffffffffffffff1673ffffffffffffffffffffffffffffffffffffffff168152602001908152602001600020600082015181600001908051906020019061101a9291906115b5565b5060208201518160010160006101000a81548173ffffffffffffffffffffffffffffffffffffffff021916908373ffffffffffffffffffffffffffffffffffffffff16021790555060408201518160010160146101000a81548163ffffffff021916908363ffffffff16021790555060608201518160010160186101000a81548163ffffffff021916908363ffffffff160217905550608082015181600101601c6101000a81548163ffffffff021916908363ffffffff16021790555060a082015181600201559050503373ffffffffffffffffffffffffffffffffffffffff167f19cab5c783c845566ebeb8baf217bb01cc8c7d436c396a9245b12eee3951eff68260405161112a919061217c565b60405180910390a250565b60003373ffffffffffffffffffffffffffffffffffffffff16600160009054906101000a900473ffffffffffffffffffffffffffffffffffffffff1673ffffffffffffffffffffffffffffffffffffffff16146111c7576040517f08c379a00000000000000000000000000000000000000000000000000000000081526004016111be90612091565b60405180910390fd5b600254905090565b3373ffffffffffffffffffffffffffffffffffffffff16600160009054906101000a900473ffffffffffffffffffffffffffffffffffffffff1673ffffffffffffffffffffffffffffffffffffffff161461125f576040517f08c379a000000000000000000000000000000000000000000000000000000000815260040161125690612091565b60405180910390fd5b80611268611315565b10156112a9576040517f08c379a00000000000000000000000000000000000000000000000000000000081526004016112a0906121ea565b60405180910390fd5b600160009054906101000a900473ffffffffffffffffffffffffffffffffffffffff1673ffffffffffffffffffffffffffffffffffffffff166108fc829081150290604051600060405180830381858888f19350505050158015611311573d6000803e3d6000fd5b5050565b6000600254471161135b576040517f08c379a0000000000000000000000000000000000000000000000000000000008152600401611352906122a2565b60405180910390fd5b60006064600160159054906101000a900460ff1660ff16600254476113809190611c14565b61138a9190611bba565b61139491906122c2565b90508091505090565b6000444342846040516020016113b6949392919061234a565b6040516020818303038152906040528051906020012060001c9050919050565b60008160028111156113eb576113ea611da6565b5b8360028111156113fe576113fd611da6565b5b141561140d5760029050611551565b6000600281111561142157611420611da6565b5b83600281111561143457611433611da6565b5b14156114795760028081111561144d5761144c611da6565b5b8260028111156114605761145f611da6565b5b141561146f5760009050611474565b600190505b611550565b60028081111561148c5761148b611da6565b5b83600281111561149f5761149e611da6565b5b14156114e557600160028111156114b9576114b8611da6565b5b8260028111156114cc576114cb611da6565b5b14156114db57600090506114e0565b600190505b61154f565b600160028111156114f9576114f8611da6565b5b83600281111561150c5761150b611da6565b5b141561154e576000600281111561152657611525611da6565b5b82600281111561153957611538611da6565b5b1415611548576000905061154d565b600190505b5b5b5b5b92915050565b6040518060c0016040528060608152602001600073ffffffffffffffffffffffffffffffffffffffff168152602001600063ffffffff168152602001600063ffffffff168152602001600063ffffffff168152602001600081525090565b8280546115c190611fed565b90600052602060002090601f0160209004810192826115e3576000855561162a565b82601f106115fc57805160ff191683800117855561162a565b8280016001018555821561162a579182015b8281111561162957825182559160200191906001019061160e565b5b509050611637919061163b565b5090565b5b8082111561165457600081600090555060010161163c565b5090565b6000819050919050565b61166b81611658565b82525050565b60006020820190506116866000830184611662565b92915050565b6000604051905090565b600080fd5b600080fd5b600381106116ad57600080fd5b50565b6000813590506116bf816116a0565b92915050565b6000602082840312156116db576116da611696565b5b60006116e9848285016116b0565b91505092915050565b6116fb81611658565b811461170657600080fd5b50565b600081359050611718816116f2565b92915050565b60006020828403121561173457611733611696565b5b600061174284828501611709565b91505092915050565b600081519050919050565b600082825260208201905092915050565b60005b8381101561178557808201518184015260208101905061176a565b83811115611794576000848401525b50505050565b6000601f19601f8301169050919050565b60006117b68261174b565b6117c08185611756565b93506117d0818560208601611767565b6117d98161179a565b840191505092915050565b600073ffffffffffffffffffffffffffffffffffffffff82169050919050565b600061180f826117e4565b9050919050565b61181f81611804565b82525050565b600063ffffffff82169050919050565b61183e81611825565b82525050565b61184d81611658565b82525050565b600060c083016000830151848203600086015261187082826117ab565b91505060208301516118856020860182611816565b5060408301516118986040860182611835565b5060608301516118ab6060860182611835565b5060808301516118be6080860182611835565b5060a08301516118d160a0860182611844565b508091505092915050565b600060208201905081810360008301526118f68184611853565b905092915050565b600080fd5b600080fd5b7f4e487b7100000000000000000000000000000000000000000000000000000000600052604160045260246000fd5b6119408261179a565b810181811067ffffffffffffffff8211171561195f5761195e611908565b5b80604052505050565b600061197261168c565b905061197e8282611937565b919050565b600067ffffffffffffffff82111561199e5761199d611908565b5b6119a78261179a565b9050602081019050919050565b82818337600083830152505050565b60006119d66119d184611983565b611968565b9050828152602081018484840111156119f2576119f1611903565b5b6119fd8482856119b4565b509392505050565b600082601f830112611a1a57611a196118fe565b5b8135611a2a8482602086016119c3565b91505092915050565b600060208284031215611a4957611a48611696565b5b600082013567ffffffffffffffff811115611a6757611a6661169b565b5b611a7384828501611a05565b91505092915050565b600082825260208201905092915050565b7f4e6f207375636820706c61796572206578697374730000000000000000000000600082015250565b6000611ac3601583611a7c565b9150611ace82611a8d565b602082019050919050565b60006020820190508181036000830152611af281611ab6565b9050919050565b7f436f6e747261637420686173206e6f7468696e6720746f20776974686472617760008201527f2f706c6179000000000000000000000000000000000000000000000000000000602082015250565b6000611b55602583611a7c565b9150611b6082611af9565b604082019050919050565b60006020820190508181036000830152611b8481611b48565b9050919050565b7f4e487b7100000000000000000000000000000000000000000000000000000000600052601160045260246000fd5b6000611bc582611658565b9150611bd083611658565b9250817fffffffffffffffffffffffffffffffffffffffffffffffffffffffffffffffff0483118215151615611c0957611c08611b8b565b5b828202905092915050565b6000611c1f82611658565b9150611c2a83611658565b925082821015611c3d57611c3c611b8b565b5b828203905092915050565b7f436f6e747261637420646f6e73742068617320656e6f7567682062616c616e6360008201527f6500000000000000000000000000000000000000000000000000000000000000602082015250565b6000611ca4602183611a7c565b9150611caf82611c48565b604082019050919050565b60006020820190508181036000830152611cd381611c97565b9050919050565b7f596f752063616e206f6e6c792062657420312045746865720000000000000000600082015250565b6000611d10601883611a7c565b9150611d1b82611cda565b602082019050919050565b60006020820190508181036000830152611d3f81611d03565b9050919050565b7f4e487b7100000000000000000000000000000000000000000000000000000000600052601260045260246000fd5b6000611d8082611658565b9150611d8b83611658565b925082611d9b57611d9a611d46565b5b828206905092915050565b7f4e487b7100000000000000000000000000000000000000000000000000000000600052602160045260246000fd5b6000611de082611658565b9150611deb83611658565b9250827fffffffffffffffffffffffffffffffffffffffffffffffffffffffffffffffff03821115611e2057611e1f611b8b565b5b828201905092915050565b6000611e3682611825565b9150611e4183611825565b92508263ffffffff03821115611e5a57611e59611b8b565b5b828201905092915050565b60038110611e7657611e75611da6565b5b50565b6000819050611e8782611e65565b919050565b6000611e9782611e79565b9050919050565b611ea781611e8c565b82525050565b60038110611ebe57611ebd611da6565b5b50565b6000819050611ecf82611ead565b919050565b6000611edf82611ec1565b9050919050565b611eef81611ed4565b82525050565b6000606082019050611f0a6000830186611e9e565b611f176020830185611662565b611f246040830184611ee6565b949350505050565b7f596f7520646f6e2774206861766520656e6f7567682062616c616e636520746f60008201527f2077697468647261770000000000000000000000000000000000000000000000602082015250565b6000611f88602983611a7c565b9150611f9382611f2c565b604082019050919050565b60006020820190508181036000830152611fb781611f7b565b9050919050565b7f4e487b7100000000000000000000000000000000000000000000000000000000600052602260045260246000fd5b6000600282049050600182168061200557607f821691505b6020821081141561201957612018611fbe565b5b50919050565b7f4f6e6c79206f776e657220686173206163636573736962696c69747920746f2060008201527f7472616e736665722066756e6473000000000000000000000000000000000000602082015250565b600061207b602e83611a7c565b91506120868261201f565b604082019050919050565b600060208201905081810360008301526120aa8161206e565b9050919050565b7f506c6179657220616c726561647920657869737420776974682074686973206160008201527f6464726573730000000000000000000000000000000000000000000000000000602082015250565b600061210d602683611a7c565b9150612118826120b1565b604082019050919050565b6000602082019050818103600083015261213c81612100565b9050919050565b600061214e8261174b565b6121588185611a7c565b9350612168818560208601611767565b6121718161179a565b840191505092915050565b600060208201905081810360008301526121968184612143565b905092915050565b7f4e6f7420656e6f7567682062616c616e636520746f2077697468647261770000600082015250565b60006121d4601e83611a7c565b91506121df8261219e565b602082019050919050565b60006020820190508181036000830152612203816121c7565b9050919050565b7f436f6e747261637420686173206d6f7265206465627420617320636f6d70617260008201527f6520746f2062616c616e63652e20536f20796f752063616e742077697468647260208201527f617720616e797468696e67000000000000000000000000000000000000000000604082015250565b600061228c604b83611a7c565b91506122978261220a565b606082019050919050565b600060208201905081810360008301526122bb8161227f565b9050919050565b60006122cd82611658565b91506122d883611658565b9250826122e8576122e7611d46565b5b828204905092915050565b6000819050919050565b61230e61230982611658565b6122f3565b82525050565b60008160f81b9050919050565b600061232c82612314565b9050919050565b61234461233f82611ed4565b612321565b82525050565b600061235682876122fd565b60208201915061236682866122fd565b60208201915061237682856122fd565b6020820191506123868284612333565b6001820191508190509594505050505056fea264697066735822122033ee18f2b50aea59a7bd445fc448a24e65192f39f1cd45b8bcbf53df45af726464736f6c634300080c0033",
  "immutableReferences": {},
  "source": "// SPDX-License-Identifier: MIT\npragma solidity ^0.8.5;\n\ncontract RockPaperScissor {\n\n    enum Options {Rock, Paper, Scissor}     // available options that player can choose from\n    enum Result {Won, Loss, Tie}            // all possible outcome of a game\n\n    // Player object\n    struct Player {\n        string name;                // name of player\n        address walletAddress;      // eth wallet address of player\n        uint32 winCount;            // number of games player has won\n        uint32 lossCount;           // number of games player has lost\n        uint32 tieCount;            // number of games player has tied\n        uint256 balance;            // total balance of players\n\n    }\n    mapping(address => Player) players;     // mapping of payer's address to its data\n    address owner;                          // address of owner\n    uint8 stakes;                           // value of stakes to which betting amount will be multiplied\n    uint8 maxWithdrawPercentOwner = 10;     // percentage of maximum ether, owner can withdraw from contract\n    uint256 contractDebt;                   // total numbe rof ethers that contract owes to players\n\n    constructor(uint8 _stakes) {\n        owner = msg.sender;\n        stakes = _stakes;\n    }\n\n    // EVENT Definitions\n    event PlayerAdded(address indexed playerAddress, string playerName);                    // to be emited when new player registers himself\n    event PlayerWithdrawal(address indexed playerAddress, uint256 amountWithdrawn);         // to be emited when players withdraws his winnings\n    event GameResult(address indexed playerAddress, Result result, uint256 winningAmount, Options winningOption);  // to be emited to depict outcome of a game\n\n    /* @title MODIFIER to make sure only owners can access */\n    modifier onlyOwner() {\n        require(owner == msg.sender, \"Only owner has accessibility to transfer funds\");\n        _;\n    }\n\n    /* @title MODIFIER to make sure Player exists */\n    modifier playerExists() {\n        require(players[msg.sender].walletAddress == msg.sender, \"No such player exists\");\n        _;\n    }\n\n    /* @title MODIFIER tto make sure player doesnot exists */\n    modifier playerDoesnotExists() {\n        require(players[msg.sender].walletAddress == address(0), \"Player already exist with this address\");\n        _;\n    }\n\n    /* @title MODIFIER tto make sure player has enough balance */\n    modifier hasEnoughBalance(uint256 _amountWithdrawn) {\n        require(players[msg.sender].balance >= _amountWithdrawn , \"You don't have enough balance to withdraw\");\n        _;\n    }\n\n    /* @title MODIFIER tto make sure contract has enough balance */\n    modifier contractHasEnoughBalance {\n        require(address(this).balance > 0, \"Contract has nothing to withdraw/play\");\n        require(address(this).balance - contractDebt >= msg.value * stakes, \"Contract donst has enough balance\");\n        _;\n    }\n\n    /**\n        * @dev UTILITY FUNCTION that randomly calculates system's option\n        * @param _option Options that player has selected\n        * @return uint256 randome number.\n    */\n    function randomNumerHelper(Options _option) private view returns (uint256) {\n        return uint256(keccak256(abi.encodePacked(block.difficulty, block.number, block.timestamp, _option)));\n    }\n\n    /**\n        * @dev FUNCTION that determine if player has won or lost or tied\n        * @param _playerOption Options that player has selected\n        * @param _randomOption Options was selected randomly\n        * @return _outcome Result of game.\n    */\n    function gameRule(Options _playerOption, Options _randomOption) internal pure returns (Result _outcome) {\n        if (_playerOption == _randomOption) {\n            _outcome = Result.Tie;\n        } else {\n            if (_playerOption == Options.Rock) {\n                if (_randomOption == Options.Scissor){\n                    _outcome = Result.Won;\n                } else {\n                    _outcome = Result.Loss;\n                }\n\n            } else if (_playerOption == Options.Scissor) {\n                if (_randomOption == Options.Paper){\n                    _outcome = Result.Won;\n                } else {\n                    _outcome = Result.Loss;\n                }\n            } else  if (_playerOption == Options.Paper) {\n                if (_randomOption == Options.Rock){\n                    _outcome = Result.Won;\n                } else {\n                    _outcome = Result.Loss;\n                }\n            }\n        }\n    }\n\n    /**\n        * @dev FUNCTION that allows player to register itself\n        * @param _playerName String Name if a player\n    */\n    function registerPlayer(string memory _playerName) external playerDoesnotExists {\n        players[msg.sender] = Player({\n            name: _playerName,\n            walletAddress: msg.sender,\n            winCount: 0,\n            lossCount: 0,\n            tieCount: 0,\n            balance: 0\n        });\n        emit PlayerAdded(msg.sender, _playerName);\n    }\n\n    /**\n        * @dev PAYBALE FUNCTION that allow player to start game\n        * @param _playerOption Options that player has selected\n    */\n    function startPlay(Options _playerOption) payable external playerExists contractHasEnoughBalance {\n        require(msg.value == 1 ether, \"You can only bet 1 Ether\");\n        uint256 _randomNumber = randomNumerHelper(_playerOption);\n        Options _winningOption = Options(_randomNumber%3);\n        Result _outcome = gameRule(_playerOption, _winningOption);\n        if (_outcome == Result.Won) {\n            uint256 _winningAmount = msg.value * stakes;\n            contractDebt += _winningAmount;\n            players[msg.sender].balance += _winningAmount;\n            players[msg.sender].winCount += 1;\n            // emit Won(msg.sender, _winningAmount);\n        } else if (_outcome == Result.Tie) {\n            uint256 _winningAmount = msg.value;\n            contractDebt += _winningAmount;\n            players[msg.sender].balance += _winningAmount;\n            players[msg.sender].tieCount += 1;\n            // emit Tie(msg.sender, _winningAmount, _winningOption);\n        } else if (_outcome == Result.Loss) {\n            players[msg.sender].lossCount += 1;\n            // emit Lost(msg.sender, msg.value, _winningOption);\n        }\n        emit GameResult(msg.sender, _outcome, msg.value, _winningOption);\n    }\n\n    /**\n        * @dev paybale FUNCTION to allow owner to add funds to contract\n    */\n    function ownerAddFunds() payable external onlyOwner {\n    }\n\n    /**\n        * @dev Payable FUNCTION that allows player to register itself\n        * @param _amountWithdrawn uint256 amount that player needs to withdraw\n    */\n    function playerWithdrawal(uint256 _amountWithdrawn) external payable playerExists hasEnoughBalance(_amountWithdrawn) {\n        players[msg.sender].balance -= _amountWithdrawn;\n        contractDebt -= _amountWithdrawn;\n        payable(msg.sender).transfer(_amountWithdrawn);\n        emit PlayerWithdrawal(msg.sender, _amountWithdrawn);\n    }\n\n    /**\n        * @dev Payable FUNCTION that allow owner to withdraw from contract\n        * @param _amount uint256 amount that player needs to withdraw\n    */\n    function ownerWithdrawal(uint256 _amount) payable external onlyOwner {\n        require(ownerGetMaxWithdrawalAvailable() >= _amount, \"Not enough balance to withdraw\");\n        payable(owner).transfer(_amount);\n    }\n\n    /**\n        * @dev Getter FUNCTION to allow player to get his details\n        * @return Player details.\n    */\n    function getPlayer() external playerExists view returns (Player memory) {\n        return players[msg.sender];\n    }\n\n    /**\n        * @dev Getter FUNCTION to allow player to get its balance\n        * @return uint256\n    */\n    function getPlayerBalance() external playerExists view returns (uint256) {\n        return players[msg.sender].balance;\n    }\n\n    /**\n        * @dev Getter FUNCTION to allow owner to know that is the maximum that he can withdraw from contract\n        * @return uint256\n    */\n    function ownerGetMaxWithdrawalAvailable() public view returns(uint256) {\n        require(address(this).balance > contractDebt, \"Contract has more debt as compare to balance. So you cant withdraw anything\");\n        uint256 _maxWithdrawalAvailable = ((address(this).balance - contractDebt) * maxWithdrawPercentOwner) / 100;\n        return _maxWithdrawalAvailable;\n    }\n\n    /**\n        * @dev Getter FUNCTION to allow owner to know total contcat's balance\n        * @return uint256\n    */\n    function getContractBalance()external onlyOwner view returns (uint256) {\n        return address(this).balance;\n    }\n\n    /**\n        * @dev Getter FUNCTION to allow owner to know how much contract owes to player\n        * @return uint256\n    */\n    function getContractDebt()external onlyOwner view returns (uint256) {\n        return contractDebt;\n    }\n}",
  "sourcePath": "/Users/geekysid/Documents/Tutorials/Blockchain/git/Basic DAPP - Rock Paper Scissor/contracts/RockPaperScissor.sol",
  "compiler": {
    "name": "solc",
    "version": "0.8.12+commit.f00d7308.Emscripten.clang"
  },
  "schemaVersion": "3.4.6",
  "updatedAt": "2022-06-06T17:29:05.375Z",
  "networkType": "ethereum",
  "devdoc": {
    "kind": "dev",
    "methods": {
      "getContractBalance()": {
        "details": "Getter FUNCTION to allow owner to know total contcat's balance",
        "returns": {
          "_0": "uint256"
        }
      },
      "getContractDebt()": {
        "details": "Getter FUNCTION to allow owner to know how much contract owes to player",
        "returns": {
          "_0": "uint256"
        }
      },
      "getPlayer()": {
        "details": "Getter FUNCTION to allow player to get his details",
        "returns": {
          "_0": "Player details."
        }
      },
      "getPlayerBalance()": {
        "details": "Getter FUNCTION to allow player to get its balance",
        "returns": {
          "_0": "uint256"
        }
      },
      "ownerAddFunds()": {
        "details": "paybale FUNCTION to allow owner to add funds to contract"
      },
      "ownerGetMaxWithdrawalAvailable()": {
        "details": "Getter FUNCTION to allow owner to know that is the maximum that he can withdraw from contract",
        "returns": {
          "_0": "uint256"
        }
      },
      "ownerWithdrawal(uint256)": {
        "details": "Payable FUNCTION that allow owner to withdraw from contract",
        "params": {
          "_amount": "uint256 amount that player needs to withdraw"
        }
      },
      "playerWithdrawal(uint256)": {
        "details": "Payable FUNCTION that allows player to register itself",
        "params": {
          "_amountWithdrawn": "uint256 amount that player needs to withdraw"
        }
      },
      "registerPlayer(string)": {
        "details": "FUNCTION that allows player to register itself",
        "params": {
          "_playerName": "String Name if a player"
        }
      },
      "startPlay(uint8)": {
        "details": "PAYBALE FUNCTION that allow player to start game",
        "params": {
          "_playerOption": "Options that player has selected"
        }
      }
    },
    "version": 1
  },
  "userdoc": {
    "kind": "user",
    "methods": {},
    "version": 1
  }
}